{
  "_format": "hh-sol-artifact-1",
  "contractName": "SecretAgreement",
  "sourceName": "contracts/SecretAgreement.sol",
  "abi": [
    {
      "inputs": [],
      "name": "AgreementAlreadyExists",
      "type": "error"
    },
    {
      "inputs": [],
      "name": "AgreementHasNotBeenAccepted",
      "type": "error"
    },
    {
      "inputs": [],
      "name": "InvalidSecret",
      "type": "error"
    },
    {
      "inputs": [],
      "name": "InvalidSignature",
      "type": "error"
    },
    {
      "inputs": [],
      "name": "YouAreNotPartOfParty",
      "type": "error"
    },
    {
      "anonymous": false,
      "inputs": [
        {
          "indexed": true,
          "internalType": "address",
          "name": "revealer",
          "type": "address"
        },
        {
          "indexed": false,
          "internalType": "string",
          "name": "secret",
          "type": "string"
        }
      ],
      "name": "SecretRevealed",
      "type": "event"
    },
    {
      "inputs": [
        {
          "internalType": "bytes32",
          "name": "_secretHash",
          "type": "bytes32"
        }
      ],
      "name": "agreeToSecret",
      "outputs": [],
      "stateMutability": "nonpayable",
      "type": "function"
    },
    {
      "inputs": [
        {
          "internalType": "bytes32",
          "name": "",
          "type": "bytes32"
        }
      ],
      "name": "agreements",
      "outputs": [
        {
          "internalType": "address",
          "name": "party1",
          "type": "address"
        },
        {
          "internalType": "address",
          "name": "party2",
          "type": "address"
        },
        {
          "internalType": "bool",
          "name": "isParty1Voted",
          "type": "bool"
        },
        {
          "internalType": "bool",
          "name": "isParty2Voted",
          "type": "bool"
        }
      ],
      "stateMutability": "view",
      "type": "function"
    },
    {
      "inputs": [
        {
          "internalType": "bytes32",
          "name": "_secretHash",
          "type": "bytes32"
        },
        {
          "internalType": "address",
          "name": "_party2",
          "type": "address"
        }
      ],
      "name": "createAgreement",
      "outputs": [],
      "stateMutability": "nonpayable",
      "type": "function"
    },
    {
      "inputs": [
        {
          "internalType": "bytes32",
          "name": "",
          "type": "bytes32"
        }
      ],
      "name": "executedAgreements",
      "outputs": [
        {
          "internalType": "bool",
          "name": "",
          "type": "bool"
        }
      ],
      "stateMutability": "view",
      "type": "function"
    },
    {
      "inputs": [
        {
          "internalType": "bytes32",
          "name": "_secretHash",
          "type": "bytes32"
        },
        {
          "internalType": "string",
          "name": "_secretToReveal",
          "type": "string"
        },
        {
          "internalType": "bytes",
          "name": "_signature",
          "type": "bytes"
        }
      ],
      "name": "revealSecret",
      "outputs": [],
      "stateMutability": "nonpayable",
      "type": "function"
    }
  ],
  "bytecode": "0x608060405234801561001057600080fd5b506116be806100206000396000f3fe608060405234801561001057600080fd5b50600436106100575760003560e01c8063576dfe9c1461005c57806359314ceb146100785780635e89b7f6146100945780639e1f68c7146100c4578063d49e9810146100f7575b600080fd5b61007660048036038101906100719190610f66565b610113565b005b610092600480360381019061008d9190610ff1565b610356565b005b6100ae60048036038101906100a99190610f66565b6105fb565b6040516100bb919061104c565b60405180910390f35b6100de60048036038101906100d99190610f66565b61061b565b6040516100ee9493929190611076565b60405180910390f35b610111600480360381019061010c91906112a2565b6106a5565b005b6001600082815260200190815260200160002060000160009054906101000a900473ffffffffffffffffffffffffffffffffffffffff1673ffffffffffffffffffffffffffffffffffffffff163373ffffffffffffffffffffffffffffffffffffffff16141580156101e757506001600082815260200190815260200160002060010160009054906101000a900473ffffffffffffffffffffffffffffffffffffffff1673ffffffffffffffffffffffffffffffffffffffff163373ffffffffffffffffffffffffffffffffffffffff1614155b1561021e576040517ff65d130900000000000000000000000000000000000000000000000000000000815260040160405180910390fd5b6001600082815260200190815260200160002060000160009054906101000a900473ffffffffffffffffffffffffffffffffffffffff1673ffffffffffffffffffffffffffffffffffffffff163373ffffffffffffffffffffffffffffffffffffffff16036102ba57600180600083815260200190815260200160002060010160146101000a81548160ff021916908315150217905550610353565b6001600082815260200190815260200160002060010160009054906101000a900473ffffffffffffffffffffffffffffffffffffffff1673ffffffffffffffffffffffffffffffffffffffff163373ffffffffffffffffffffffffffffffffffffffff160361035257600180600083815260200190815260200160002060010160156101000a81548160ff0219169083151502179055505b5b50565b6000600160008481526020019081526020016000209050600073ffffffffffffffffffffffffffffffffffffffff168160000160009054906101000a900473ffffffffffffffffffffffffffffffffffffffff1673ffffffffffffffffffffffffffffffffffffffff16146103f7576040517fce8dc70f00000000000000000000000000000000000000000000000000000000815260040160405180910390fd5b338160000160006101000a81548173ffffffffffffffffffffffffffffffffffffffff021916908373ffffffffffffffffffffffffffffffffffffffff160217905550818160010160006101000a81548173ffffffffffffffffffffffffffffffffffffffff021916908373ffffffffffffffffffffffffffffffffffffffff16021790555060008160010160146101000a81548160ff02191690831515021790555060008160010160156101000a81548160ff02191690831515021790555080600160008581526020019081526020016000206000820160009054906101000a900473ffffffffffffffffffffffffffffffffffffffff168160000160006101000a81548173ffffffffffffffffffffffffffffffffffffffff021916908373ffffffffffffffffffffffffffffffffffffffff1602179055506001820160009054906101000a900473ffffffffffffffffffffffffffffffffffffffff168160010160006101000a81548173ffffffffffffffffffffffffffffffffffffffff021916908373ffffffffffffffffffffffffffffffffffffffff1602179055506001820160149054906101000a900460ff168160010160146101000a81548160ff0219169083151502179055506001820160159054906101000a900460ff168160010160156101000a81548160ff021916908315150217905550905050505050565b60006020528060005260406000206000915054906101000a900460ff1681565b60016020528060005260406000206000915090508060000160009054906101000a900473ffffffffffffffffffffffffffffffffffffffff16908060010160009054906101000a900473ffffffffffffffffffffffffffffffffffffffff16908060010160149054906101000a900460ff16908060010160159054906101000a900460ff16905084565b60006106b084610a91565b90506000836040516020016106c5919061139e565b6040516020818303038152906040528051906020012090506000836040516020016106f091906113fc565b6040516020818303038152906040528051906020012090506001600087815260200190815260200160002060000160009054906101000a900473ffffffffffffffffffffffffffffffffffffffff1673ffffffffffffffffffffffffffffffffffffffff163373ffffffffffffffffffffffffffffffffffffffff16141580156107dc57506001600087815260200190815260200160002060010160009054906101000a900473ffffffffffffffffffffffffffffffffffffffff1673ffffffffffffffffffffffffffffffffffffffff163373ffffffffffffffffffffffffffffffffffffffff1614155b15610813576040517ff65d130900000000000000000000000000000000000000000000000000000000815260040160405180910390fd5b600015156001600088815260200190815260200160002060010160149054906101000a900460ff16151514806108705750600015156001600088815260200190815260200160002060010160159054906101000a900460ff161515145b156108a7576040517fd546f4e200000000000000000000000000000000000000000000000000000000815260040160405180910390fd5b600015156108b6848685610ac7565b1515036108ef576040517f8baa579f00000000000000000000000000000000000000000000000000000000815260040160405180910390fd5b6001151560008083815260200190815260200160002060009054906101000a900460ff1615150361094c576040517f8baa579f00000000000000000000000000000000000000000000000000000000815260040160405180910390fd5b818614610985576040517fabab6bd700000000000000000000000000000000000000000000000000000000815260040160405180910390fd5b3373ffffffffffffffffffffffffffffffffffffffff167eeb786744a9f65011038c21efff745d1e8909171bd3f11d61dce3e65037d002866040516109ca919061145d565b60405180910390a2600160008083815260200190815260200160002060006101000a81548160ff02191690831515021790555060016000878152602001908152602001600020600080820160006101000a81549073ffffffffffffffffffffffffffffffffffffffff02191690556001820160006101000a81549073ffffffffffffffffffffffffffffffffffffffff02191690556001820160146101000a81549060ff02191690556001820160156101000a81549060ff02191690555050505050505050565b60007f19457468657265756d205369676e6564204d6573736167653a0a33320000000060005281601c52603c6000209050919050565b600080610add8486610c5c90919063ffffffff16565b9050600073ffffffffffffffffffffffffffffffffffffffff168173ffffffffffffffffffffffffffffffffffffffff1603610b45576040517f8baa579f00000000000000000000000000000000000000000000000000000000815260040160405180910390fd5b6001600084815260200190815260200160002060000160009054906101000a900473ffffffffffffffffffffffffffffffffffffffff1673ffffffffffffffffffffffffffffffffffffffff168173ffffffffffffffffffffffffffffffffffffffff1614158015610c1957506001600084815260200190815260200160002060010160009054906101000a900473ffffffffffffffffffffffffffffffffffffffff1673ffffffffffffffffffffffffffffffffffffffff168173ffffffffffffffffffffffffffffffffffffffff1614155b15610c50576040517ff65d130900000000000000000000000000000000000000000000000000000000815260040160405180910390fd5b60019150509392505050565b6000806000610c6b8585610c83565b91509150610c7881610cd4565b819250505092915050565b6000806041835103610cc45760008060006020860151925060408601519150606086015160001a9050610cb887828585610e3a565b94509450505050610ccd565b60006002915091505b9250929050565b60006004811115610ce857610ce761147f565b5b816004811115610cfb57610cfa61147f565b5b0315610e375760016004811115610d1557610d1461147f565b5b816004811115610d2857610d2761147f565b5b03610d68576040517f08c379a0000000000000000000000000000000000000000000000000000000008152600401610d5f906114fa565b60405180910390fd5b60026004811115610d7c57610d7b61147f565b5b816004811115610d8f57610d8e61147f565b5b03610dcf576040517f08c379a0000000000000000000000000000000000000000000000000000000008152600401610dc690611566565b60405180910390fd5b60036004811115610de357610de261147f565b5b816004811115610df657610df561147f565b5b03610e36576040517f08c379a0000000000000000000000000000000000000000000000000000000008152600401610e2d906115f8565b60405180910390fd5b5b50565b6000807f7fffffffffffffffffffffffffffffff5d576e7357a4501ddfe92f46681b20a08360001c1115610e75576000600391509150610f13565b600060018787878760405160008152602001604052604051610e9a9493929190611643565b6020604051602081039080840390855afa158015610ebc573d6000803e3d6000fd5b505050602060405103519050600073ffffffffffffffffffffffffffffffffffffffff168173ffffffffffffffffffffffffffffffffffffffff1603610f0a57600060019250925050610f13565b80600092509250505b94509492505050565b6000604051905090565b600080fd5b600080fd5b6000819050919050565b610f4381610f30565b8114610f4e57600080fd5b50565b600081359050610f6081610f3a565b92915050565b600060208284031215610f7c57610f7b610f26565b5b6000610f8a84828501610f51565b91505092915050565b600073ffffffffffffffffffffffffffffffffffffffff82169050919050565b6000610fbe82610f93565b9050919050565b610fce81610fb3565b8114610fd957600080fd5b50565b600081359050610feb81610fc5565b92915050565b6000806040838503121561100857611007610f26565b5b600061101685828601610f51565b925050602061102785828601610fdc565b9150509250929050565b60008115159050919050565b61104681611031565b82525050565b6000602082019050611061600083018461103d565b92915050565b61107081610fb3565b82525050565b600060808201905061108b6000830187611067565b6110986020830186611067565b6110a5604083018561103d565b6110b2606083018461103d565b95945050505050565b600080fd5b600080fd5b6000601f19601f8301169050919050565b7f4e487b7100000000000000000000000000000000000000000000000000000000600052604160045260246000fd5b61110e826110c5565b810181811067ffffffffffffffff8211171561112d5761112c6110d6565b5b80604052505050565b6000611140610f1c565b905061114c8282611105565b919050565b600067ffffffffffffffff82111561116c5761116b6110d6565b5b611175826110c5565b9050602081019050919050565b82818337600083830152505050565b60006111a461119f84611151565b611136565b9050828152602081018484840111156111c0576111bf6110c0565b5b6111cb848285611182565b509392505050565b600082601f8301126111e8576111e76110bb565b5b81356111f8848260208601611191565b91505092915050565b600067ffffffffffffffff82111561121c5761121b6110d6565b5b611225826110c5565b9050602081019050919050565b600061124561124084611201565b611136565b905082815260208101848484011115611261576112606110c0565b5b61126c848285611182565b509392505050565b600082601f830112611289576112886110bb565b5b8135611299848260208601611232565b91505092915050565b6000806000606084860312156112bb576112ba610f26565b5b60006112c986828701610f51565b935050602084013567ffffffffffffffff8111156112ea576112e9610f2b565b5b6112f6868287016111d3565b925050604084013567ffffffffffffffff81111561131757611316610f2b565b5b61132386828701611274565b9150509250925092565b600081519050919050565b600081905092915050565b60005b83811015611361578082015181840152602081019050611346565b60008484015250505050565b60006113788261132d565b6113828185611338565b9350611392818560208601611343565b80840191505092915050565b60006113aa828461136d565b915081905092915050565b600081519050919050565b600081905092915050565b60006113d6826113b5565b6113e081856113c0565b93506113f0818560208601611343565b80840191505092915050565b600061140882846113cb565b915081905092915050565b600082825260208201905092915050565b600061142f8261132d565b6114398185611413565b9350611449818560208601611343565b611452816110c5565b840191505092915050565b600060208201905081810360008301526114778184611424565b905092915050565b7f4e487b7100000000000000000000000000000000000000000000000000000000600052602160045260246000fd5b7f45434453413a20696e76616c6964207369676e61747572650000000000000000600082015250565b60006114e4601883611413565b91506114ef826114ae565b602082019050919050565b60006020820190508181036000830152611513816114d7565b9050919050565b7f45434453413a20696e76616c6964207369676e6174757265206c656e67746800600082015250565b6000611550601f83611413565b915061155b8261151a565b602082019050919050565b6000602082019050818103600083015261157f81611543565b9050919050565b7f45434453413a20696e76616c6964207369676e6174757265202773272076616c60008201527f7565000000000000000000000000000000000000000000000000000000000000602082015250565b60006115e2602283611413565b91506115ed82611586565b604082019050919050565b60006020820190508181036000830152611611816115d5565b9050919050565b61162181610f30565b82525050565b600060ff82169050919050565b61163d81611627565b82525050565b60006080820190506116586000830187611618565b6116656020830186611634565b6116726040830185611618565b61167f6060830184611618565b9594505050505056fea2646970667358221220815500fe282a626046f3bf7e27d30435a059f506d78391a8a6aca4511d7892c564736f6c63430008120033",
  "linkReferences": {},
  "deployedLinkReferences": {}
}